{
  "contractName": "Greeting",
  "abi": [
    {
      "inputs": [
        {
          "internalType": "string",
          "name": "initialName",
          "type": "string"
        }
      ],
      "stateMutability": "nonpayable",
      "type": "constructor"
    },
    {
      "inputs": [],
      "name": "greetingPrefix",
      "outputs": [
        {
          "internalType": "string",
          "name": "",
          "type": "string"
        }
      ],
      "stateMutability": "view",
      "type": "function",
      "constant": true
    },
    {
      "inputs": [],
      "name": "name",
      "outputs": [
        {
          "internalType": "string",
          "name": "",
          "type": "string"
        }
      ],
      "stateMutability": "view",
      "type": "function",
      "constant": true
    },
    {
      "inputs": [
        {
          "internalType": "string",
          "name": "newName",
          "type": "string"
        }
      ],
      "name": "setName",
      "outputs": [],
      "stateMutability": "nonpayable",
      "type": "function"
    },
    {
      "inputs": [],
      "name": "getGreeting",
      "outputs": [
        {
          "internalType": "string",
          "name": "",
          "type": "string"
        }
      ],
      "stateMutability": "view",
      "type": "function",
      "constant": true
    }
  ],
  "bytecode": "0x60806040526040518060400160405280600681526020017f48656c6c6f2000000000000000000000000000000000000000000000000000008152506001908051906020019062000051929190620000a5565b503480156200005f57600080fd5b5060405162000a2a38038062000a2a8339818101604052810190620000859190620002f2565b80600090805190602001906200009d929190620000a5565b5050620003a8565b828054620000b39062000372565b90600052602060002090601f016020900481019282620000d7576000855562000123565b82601f10620000f257805160ff191683800117855562000123565b8280016001018555821562000123579182015b828111156200012257825182559160200191906001019062000105565b5b50905062000132919062000136565b5090565b5b808211156200015157600081600090555060010162000137565b5090565b6000604051905090565b600080fd5b600080fd5b600080fd5b600080fd5b6000601f19601f8301169050919050565b7f4e487b7100000000000000000000000000000000000000000000000000000000600052604160045260246000fd5b620001be8262000173565b810181811067ffffffffffffffff82111715620001e057620001df62000184565b5b80604052505050565b6000620001f562000155565b9050620002038282620001b3565b919050565b600067ffffffffffffffff82111562000226576200022562000184565b5b620002318262000173565b9050602081019050919050565b60005b838110156200025e57808201518184015260208101905062000241565b838111156200026e576000848401525b50505050565b60006200028b620002858462000208565b620001e9565b905082815260208101848484011115620002aa57620002a96200016e565b5b620002b78482856200023e565b509392505050565b600082601f830112620002d757620002d662000169565b5b8151620002e984826020860162000274565b91505092915050565b6000602082840312156200030b576200030a6200015f565b5b600082015167ffffffffffffffff8111156200032c576200032b62000164565b5b6200033a84828501620002bf565b91505092915050565b7f4e487b7100000000000000000000000000000000000000000000000000000000600052602260045260246000fd5b600060028204905060018216806200038b57607f821691505b60208210811415620003a257620003a162000343565b5b50919050565b61067280620003b86000396000f3fe608060405234801561001057600080fd5b506004361061004c5760003560e01c806306fdde0314610051578063213686071461006f578063c47f00271461008d578063fe50cc72146100a9575b600080fd5b6100596100c7565b6040516100669190610364565b60405180910390f35b610077610155565b6040516100849190610364565b60405180910390f35b6100a760048036038101906100a291906104cf565b6101e3565b005b6100b16101fd565b6040516100be9190610364565b60405180910390f35b600080546100d490610547565b80601f016020809104026020016040519081016040528092919081815260200182805461010090610547565b801561014d5780601f106101225761010080835404028352916020019161014d565b820191906000526020600020905b81548152906001019060200180831161013057829003601f168201915b505050505081565b6001805461016290610547565b80601f016020809104026020016040519081016040528092919081815260200182805461018e90610547565b80156101db5780601f106101b0576101008083540402835291602001916101db565b820191906000526020600020905b8154815290600101906020018083116101be57829003601f168201915b505050505081565b80600090805190602001906101f9929190610228565b5050565b606060016000604051602001610214929190610618565b604051602081830303815290604052905090565b82805461023490610547565b90600052602060002090601f016020900481019282610256576000855561029d565b82601f1061026f57805160ff191683800117855561029d565b8280016001018555821561029d579182015b8281111561029c578251825591602001919060010190610281565b5b5090506102aa91906102ae565b5090565b5b808211156102c75760008160009055506001016102af565b5090565b600081519050919050565b600082825260208201905092915050565b60005b838110156103055780820151818401526020810190506102ea565b83811115610314576000848401525b50505050565b6000601f19601f8301169050919050565b6000610336826102cb565b61034081856102d6565b93506103508185602086016102e7565b6103598161031a565b840191505092915050565b6000602082019050818103600083015261037e818461032b565b905092915050565b6000604051905090565b600080fd5b600080fd5b600080fd5b600080fd5b7f4e487b7100000000000000000000000000000000000000000000000000000000600052604160045260246000fd5b6103dc8261031a565b810181811067ffffffffffffffff821117156103fb576103fa6103a4565b5b80604052505050565b600061040e610386565b905061041a82826103d3565b919050565b600067ffffffffffffffff82111561043a576104396103a4565b5b6104438261031a565b9050602081019050919050565b82818337600083830152505050565b600061047261046d8461041f565b610404565b90508281526020810184848401111561048e5761048d61039f565b5b610499848285610450565b509392505050565b600082601f8301126104b6576104b561039a565b5b81356104c684826020860161045f565b91505092915050565b6000602082840312156104e5576104e4610390565b5b600082013567ffffffffffffffff81111561050357610502610395565b5b61050f848285016104a1565b91505092915050565b7f4e487b7100000000000000000000000000000000000000000000000000000000600052602260045260246000fd5b6000600282049050600182168061055f57607f821691505b6020821081141561057357610572610518565b5b50919050565b600081905092915050565b60008190508160005260206000209050919050565b600081546105a681610547565b6105b08186610579565b945060018216600081146105cb57600181146105dc5761060f565b60ff1983168652818601935061060f565b6105e585610584565b60005b83811015610607578154818901526001820191506020810190506105e8565b838801955050505b50505092915050565b60006106248285610599565b91506106308284610599565b9150819050939250505056fea26469706673582212204bfa38104972d75f79cddefd4fd2e905bd43c495b287cd0dc5397d74a010174d64736f6c634300080c0033",
  "immutableReferences": {},
  "source": "// SPDX-License-Identifier: MIT\npragma solidity 0.8.12;\n\ncontract Greeting {\n    string public name;\n    string public greetingPrefix = \"Hello \";\n\n    constructor(string memory initialName) {\n        name = initialName;\n    }\n    function setName(string memory newName) public {\n        name = newName;\n    }\n\n    function getGreeting() public view returns (string memory) {\n        return string(abi.encodePacked(greetingPrefix, name));\n    }\n}",
  "sourcePath": "/Users/ibrahim/Projects/smart_contract/smart_contract_basic/contracts/Greeting.sol",
  "compiler": {
    "name": "solc",
    "version": "0.8.12+commit.f00d7308.Emscripten.clang"
  },
  "schemaVersion": "3.4.5",
  "updatedAt": "2022-03-11T22:08:55.503Z",
  "networkType": "ethereum",
  "devdoc": {
    "kind": "dev",
    "methods": {},
    "version": 1
  },
  "userdoc": {
    "kind": "user",
    "methods": {},
    "version": 1
  }
}